:0D000E00E4F59275910175DE2F75BC80221E
:1003A70043BC400000E5BC30E5FB53BCDFAFBDEF0D
:0503B700FEADBEEDFFEC
:0103BC00221E
:0E03F30000007F0D7E2D7DD6DDFEDEFCDFFAE4
:0104010022D8
:0600A60000007F01DFFEF7
:0100AC002231
:1003BD00E4F594F5937592FFF591F5967595FF75A6
:0603CD00B2FF75B1FF2232
:1002A80075F8FFC2CD1203F31203F31203F312031E
:1002B800F31203F3D2CD1203F31203F31203F31272
:0702C80003F31203F380DCD5
:10006600E4F514F518F517F516F515F51CF51BF559
:100076001AF519F513F512F511F510F5D875D90914
:10008600F5E9F5F975DA21F5EAF5FAD2DED2AF220D
:03003B0002019B24
:10019B00C0E0C0D030DF04C2DF051430D833C2D882
:1001AB00851C18851B17851A1685191585EA1C855C
:1001BB00FA1B85141A751900C3E51C9518F513E580
:1001CB001B9517F512E51A9516F511E5199515F509
:0601DB0010D0D0D0E0328C
:06042F00C180023600004E
:1002560075BA8090FFF2E4F090FFF07410F0A3E41A
:10026600F090FF00F0A3F0A3F0A304F0A37480F0D5
:09027600E4F5BA75FEC0D2AF2216
:0300B30002014205
:08014200C0E0C083C082C0D000
:10014A00E5F130E74353F17F3000150537E53770A5
:10015A00020536C3E53664809490401BC2008017BE
:10016A00E537153770021536D3E5379401E536645D
:10017A008094805002D200C0BA43BA8090FF02E550
:08018A0036F0A3E537F0D0BA0E
:09019200D0D0D082D083D0E0323D
:10022700751DFF751EFD751FF9E4F53CAB1DAA1E74
:10023700A91FAF3CEF3395E08F82F5831201FAFFD8
:0E024700120003053CC3E53C6480948740DE52
:010255002286
:10027F00751D00751E00751FF1E4F53DAB1DAA1E1F
:10028F00A91F853D827583001201FAFF1200030535
:08029F003DE53DC3940740E476
:0102A7002234
:1003D300E4F589758A66758CFCD28CD2A9D2AF22DA
:03000B000203638A
:10036300C0E0C0D00539E53970020538C394F4E51F
:100373003894014008753800753900B2CDD0D0D01B
:02038300E03266
:03001B0002038558
:10038500C0E0C0D00539E53970020538C394F4E5FD
:100395003894014008753800753900B2CDD0D0D0F9
:0203A500E03244
:1003E300E4F589758B66758DFCD28ED2ABD2AF22C4
:0300630002003E5A
:10003E00C0E0C0D053EFFE0539E53970020538C374
:10004E00942CE53894014008753800753900B2CD0E
:05005E00D0D0D0E0321B
:0F04020075D76675D6FC758E1075AF04D2AF2214
:03009B000202CF8F
:1002CF00C0E0C0D053EFFD0539E53970020538C3E2
:1002DF0094BCE53894024008753800753900B2CDEA
:0502EF00D0D0D0E03288
:0F04110075D56675D4FC75D10875AF20D2AF22B2
:0300A3000202F462
:1002F400C0E0C0D053EFFB0539E53970020538C3BF
:1003040094E8E53894034008753800753900B2CD97
:05031400D0D0D0E03262
:0F04200075D36675D2FC75D18075AF40D2AF220F
:1000260075985075D7E875D6FF438E15E4F522F519
:0400360021C20122C0
:080003002001FDD2018F9922BA
:100319008B338A348935AB33AA34A9351201E160AC
:10032900130535E5357002053414F91201E1FF12A0
:05033900000380E22238
:0300230002033E97
:10033E00C0E0C0D075D008309904C299C20130987F
:10034E000FC298AF22052274232FF8A69953220FBD
:05035E00D0D0D0E03218
:04001E00E4F5A22241
:030000000200B645
:0C00B600787FE4F6D8FD75813D0200FD66
:1001E100BB010689828A83E0225002E722BBFE021C
:0901F100E32289828A83E493224F
:1001FA00BB010CE58229F582E5833AF583E02250BA
:10020A0006E92582F8E622BBFE06E92582F8E22203
:0D021A00E58229F582E5833AF583E493221D
:1000C2000202A8E493A3F8E493A34003F68001F2AA
:1000D20008DFF48029E493A3F85407240CC8C3333F
:1000E200C4540F4420C8834004F456800146F6DF0E
:1000F200E4800B010204081020408090042FE47E6B
:10010200019360BCA3FF543F30E509541FFEE49302
:10011200A360010ECF54C025E060A840B8E493A3C9
:10012200FAE493A3F8E493A3C8C582C8CAC583CAF4
:10013200F0A3C8C582C8CAC583CADFE9DEE780BEAC
:0104350000C6
:00000001FF
