:10355D0060D20000D61ACADFC05AB685AD56A4C4D3
:10356D009C03940B8CB785EC7FE6798973876DDAB4
:10357D00687D636B5E9F5A1555CA51B94DE04A3A45
:10358D0046C6438040653D733AA83801357D3319F1
:10359D0030D42EAC2C9F2AAD28D32710256223CAF8
:1035AD00224520D31F731E231CE31BB21A8F197AD9
:1035BD00187117751684159E14C313F1132912690A
:1035CD0011B21103105C0FBC0F230E910E050D7F70
:1035DD000CFE0C830C0E0B9D0B310AC90A660A06F4
:1035ED0009AB095308FF08AF0861081707CF078B10
:1035FD000749070906CD0692065A062405F005BEB1
:10360D00058E055F0533050804DF04B70491046CCE
:10361D0004480426040503E503C603A9038C0371BE
:06362D000356033C0324D8
:074B680075DE2F75BC8022F1
:102FF10043BC4C0000E5BC30E5FB53BCDFAFBDEF8B
:10300100FEADBEEDFFE4FCFD9000E612299AE47FDF
:10301100887E13FDFC9000E6E0F8A3E0F9A3E0FA56
:10302100A3E0FB12282FE4FB7A04F9F81228BA90E6
:1030310000EE12299AE47F5C7E12FDFC9000EEE026
:10304100F8A3E0F9A3E0FAA3E0FBD3122962400957
:103051009000E474FFF0023187E47FF47E01FDFC0F
:103061009000EEE0F8A3E0F9A3E0FAA3E0FBC312BD
:10307100296250099000E474FEF00231879000EE5D
:10308100E0F8A3E0F9A3E0FAA3E0FBC374889BFF97
:1030910074139AFEE499FDE498FCE47B0AFAF9F8CA
:1030A1001228BA9000E612299AE47FE87E03FDFC1B
:1030B1009000EEE0F8A3E0F9A3E0FAA3E0FB122808
:1030C1002F9000EA12299A9000EAE0FCA3E0FDA308
:1030D100E0FEA3E0FF9000E6E0F8A3E0F9A3E0FA48
:1030E100A3E0FB1228BA9000EA12299AE47F1A7E23
:1030F100D6FDFC9000EAE0F8A3E0F9A3E0FAA3E032
:10310100FBD31229624003E48078E47F247E03FD2F
:10311100FC9000EAE0F8A3E0F9A3E0FAA3E0FBC326
:1031210012296250089000E47468F08059E490001C
:10313100E5F09000E5E0FFC394685042EF25E024FC
:1031410000F582E43400F583E0FEA3E0FFE4FCFD3A
:103151009000E612299A9000E6E0FCA3E0FDA3E0CE
:10316100FEA3E0FFA3E0F8A3E0F9A3E0FAA3E0FBEC
:10317100C312296250089000E5E004F080B4900089
:0C318100E5E09000E4F0009000E4E0FFC6
:01318D00221F
:1036330041014C0041014D0041014E0041014F0049
:0836430041015000410151005A
:103ED70075F8FF75944A75931575923B759104753E
:103EE700966E75958175B2B275B14D75B44F75B350
:103EF700B075CA1375C904124B4C124B5A124A06B5
:103F0700124B68758F10D2AFD201D202D2A6D2A3BC
:103F1700D2A2124B6F124B75D2B6D2C8D2C9C29376
:103F2700C2947FD07E077D007C00120056124B386A
:103F3700123C82124B0912341B9001527401F0C2D9
:103F47000090017EF090015E04F0900170E4F0A310
:103F57007464F0E4900161F0A3F09001797405F0C6
:0E3F6700900172F0E4900153F012496880F668
:0300530002318EE9
:10318E00C0E0C083C082C0D075D000C000C005C0F2
:03319E0006C00761
:1031A10090014CE0702B90015BE0FEA3E0FFD39413
:1031B10010EE940050030232C1EF9418EE940040D7
:1031C100030232C190014C7401F0900151E40232CA
:1031D100BC90015BE0FEA3E0FFC39405EE940050B8
:1031E1000C900151E025E0F0E004F0801BC3EF9466
:1031F10007EE94005009900151E025E0F08009901C
:10320100014CE4F0900151F090014DE004F0E064D4
:103211000460030232C1900151E01229E3328000BF
:1032210032880132400432780832600932700A3241
:10323100680B32500C32580D32480E0000328E901D
:10324100014E7401F0804690014E7402F0803E9070
:10325100014E7403F0803690014E7404F0802E907C
:10326100014E7405F0802690014E7406F0801E9088
:10327100014E7407F0801690014E7408F0800E9094
:10328100014E7409F0800690014E740AF090014ECF
:10329100E0FFA3E0B50711A3E004F0E0D3940540FB
:1032A1000C900179EFF08000900150E4F090014E14
:1032B100E0A3F090014CE4F0900151F090014DF049
:0732C10090015BE4F0A3F0B3
:1032C800D007D006D005D000D0D0D082D083D0E0AF
:0132D80032C3
:104336009000E4EEF0A3EFF0A3ECF0A3EDF0E4F5CB
:10434600FE43F11075BA8090FC52F09000E4E0FE56
:10435600A3E0FBAA06E4F9F8FF7E407DFA7C011291
:1043660047C4780812297390FC50EFF09000E4E0FF
:10437600FEA3E0FBAA06E4F9F8FF7E407DFA7C0185
:104386001247C490FC51EFF09000E6E0FCA3E0FD7C
:10439600EC90FC90F0A3EDF0A3E4F0A3F0A37480FE
:0843A600F0E4F5BA75FE0122F6
:064B6F00E4F5FEC2C622BF
:104243009000E4EEF0A3EFF0A3ECF0A3EDF0E4F5BF
:10425300F643F10175BA8090FF02F09000E4E0FEAE
:10426300A3E0FBAA06E4F9F8FF7E407DFA7C011285
:1042730047C4780812297390FF00EFF09000E4E040
:10428300FEA3E0FBAA06E4F9F8FF7E407DFA7C0179
:104293001247C490FF01EFF090FF40E4F0A3F090C9
:1042A30000E6E0FCA3E0FDEC90FF42F0A3EDF0A3F9
:0A42B3007480F0E4F5BA75F60122FC
:064B7500E4F5F6D28622F1
:10364B004401B8000000004401B400000000440134
:0C365B00AC000000004401B000000000C2
:100056009000E412299A9001B81229A60000000027
:100066009000E4E0FCA3E0FDA3E0FEA3E0FF900126
:10007600B8E0F8A3E0F9A3E0FAA3E0FBC312296213
:0300860040DE2237
:0E4B4C00E4F589758CF5758A34D28CD2A922D5
:03000B00023D565D
:103D5600C0E0C0F0C083C082C0D075D0089001B862
:103D6600E0FCA3E0FDA3E0FEA3E02401FFE43EFEA9
:103D7600E43DFDE43CFC9001B812299A9001B4E0C0
:103D8600FCA3E0FDA3E0FEA3E02401FFE43EFEE485
:103D96003DFDE43CFC9001B412299A90016FE0FFCE
:103DA600D39400400CEFB40102D29090016FE0145E
:103DB600F0200236900160E004F0700690015FE0AA
:103DC60004F0900154E0FEA3E0FFC3900160E09F81
:103DD60090015FE09E401DE4F0A3F0C20390015203
:103DE600E004900173F0C2A2800A90015F7403F0B0
:103DF600A374E8F0900173E0FFD39400400CEFB495
:103E06000102D2A2900173E014F0D0D0D082D08308
:053E1600D0F0D0E03205
:0E4B5A00E4F589758DFA758B9AD28ED2AB2256
:03001B00024A8511
:104A8500C0E0C083C08290015CE004F07006900134
:0B4A95005BE004F0D082D083D0E03260
:0244FB00AB070D
:1044FD009001B4E0FCA3E0FDA3E0FEA3E0FF90017A
:10450D00AC12299AEB70129001ACE0FCA3E0FDA374
:10451D00E0FEA3E0FFA312299A9001B0E0F8A3E01A
:10452D00F9A3E0FAA3E0FB9001ACE0FCA3E0FDA34E
:10453D00E0FEA3E0C39BFFEE9AFEED99FDEC98FC27
:10454D00E47B64FAF9F8C312296250037F01227FDC
:01455D00005D
:01455E00223A
:0436670041017F009E
:104A06005393FD43940253BAFD75AC5075D5B875F2
:104A1600D4FF75D10AC2059001AA740AF043AF0803
:014A2600226D
:080003002005FDD2058FAD229E
:03008B00023B9F96
:0F3B9F00C0E0C0F0C083C082C0D075D000C007A6
:103BAE00E5AC30E10553ACFDC205E5AC20E0030207
:103BBE003C7553ACFEAFAD9001AAE014B40A0040C0
:103BCE0003023C6A903BE075F003A4C58325F0C563
:103BDE008373023C62023C5A023C5A023C5A023C3B
:103BEE0045023C3B023C31023C27023C09023BFEB3
:103BFE00EF9001AAB4AA0280568064EF248E600B67
:103C0E0014701190017F74FFF0800990017FE4F031
:103C1E0090015DF09001AA803690017AEFF090014C
:103C2E00AA802C90017CEFF09001AA802290017B5B
:103C3E00EFF09001AA801890017DEFF09001AAE0BC
:103C4E0014F090017FE090015DF0801B9001AAE0DE
:103C5E0014F080139001AA740AF0800B9001AA74DC
:073C6E000AF090017FE4F071
:0D3C7500D007D0D0D082D083D0F0D0E03284
:104A4800D2A4D2A500000000000000000000000071
:0F4A5800C2A400000000000000000000000022C7
:104A2700D2A5C2A4000000000000000000000000A2
:104A3700D2A5D2A400000000000000000000000082
:014A4700224C
:08488700EA25E0FFEF24A0FF89
:10488F00C2A5E4FEEF5480C4131313540124FF9206
:10489F00A4EF25E0FF000000D2A5000000C2A50094
:0748AF0000000EEEB408DD6D
:0148B60022DF
:08493D00124945AF0312488F37
:10494500E4FFD2A400000000D2A50000000030A4BE
:104955000D0FEFD394FA40F6124A277F0122C2A524
:024965007F00D1
:01496700222D
:10484A00E49000DAF0FEC2A5000000000000D2A544
:10485A00000000009000DAE0FD25E0F030A403E05B
:10486A0004F000000000000EEEB408DAEF70051242
:0C487A004ABB8003124AA09000DAE0FF65
:01488600220F
:104AA000C2A5C2A4000000000000000000D2A500C2
:0B4AB0000000000000000000C2A52272
:104ABB00C2A5D2A4000000000000000000D2A50097
:0B4ACB000000000000000000C2A52257
:0449BC00AB07AA0695
:1049C000E4FC124A4812488712493D124A487FA126
:1049D00012488F124945E4FF12484AAC07124A2791
:0149E00022B4
:1049E100AB07AA06AC05124A4812488712493DAFE7
:1049F1000412488F124945124A277F0A7E007D0022
:054A01007C00020056DC
:10496800E490015DF0900153E014600F146011149D
:104978006013240370EA12461B80E512008E80E063
:0A498800122A0980DB1223E680D614
:104AF000030000077F0000035B0100077F035C04E5
:094B000037000000FF035C0437DC
:10461B007F01124AD67F017E007D007C001200567E
:10462B0090015DE060EF124678904AF0E493FF7BD7
:10463B00FF7A4A79F11239BFEF24FE600714601438
:10464B0024027020C29090016F7450F0900153744B
:10465B0001F08017C29090016F7450F09001537469
:0C466B0002F08007E490015DF080AA00DE
:014677002220
:1042BD002A00415620002E000E02BC030F01DF0222
:1042CD00330327037A01DF0233039203E501DF0293
:1042DD003303FD045001DF0233046804BB01DF0228
:1042ED003302BC030F025602AA0327037A025602B9
:1042FD00AA039203E5025602AA03FD0450025602D8
:10430D00AA046804BB025602AA030A0430015E0126
:10431D00B40323039B02C6030B043E045E01790123
:09432D009903E3045B02C6030BD3
:102A09007F06124AD6E49000D3F0A3F0A3F0A3F016
:102A1900A3F0A3F09000D2F01237B07F017E007DC1
:102A2900007C0012005690015DE060EF124678903C
:102A390042C5E493FF7BFF7A4279C61239BFEF148E
:102A4900B40E004003022C65902A5F75F003A4C5FB
:102A59008325F0C58373022A89022AAD022AD1028D
:102A69002AF5022B19022B3D022B61022B84022B22
:102A7900A7022BCA022BF3022C10022C1F022C4D89
:102A89009000D2E0FFC394064003022C65C29090E7
:102A9900016F7450F074D32FF582E43400F5837418
:102AA90001022BEA9000D2E0FFC394064003022CF6
:102AB90065C29090016F7450F074D32FF582E4349D
:102AC90000F5837402022BEA9000D2E0FFC394065A
:102AD9004003022C65C29090016F7450F074D32F9B
:102AE900F582E43400F5837403022BEA9000D2E006
:102AF900FFC394064003022C65C29090016F745085
:102B0900F074D32FF582E43400F5837404022BEAC0
:102B19009000D2E0FFC394064003022C65C2909056
:102B2900016F7450F074D32FF582E43400F5837487
:102B390005022BEA9000D2E0FFC394064003022C61
:102B490065C29090016F7450F074D32FF582E4340C
:102B590000F5837406022BEA9000D2E0FFC39406C5
:102B69004003022C65C29090016F7450F074D32F0A
:102B7900F582E43400F583740780669000D2E0FFA3
:102B8900C394064003022C65C29090016F7450F003
:102B990074D32FF582E43400F583740880439000E0
:102BA900D2E0FFC394064003022C65C29090016FE6
:102BB9007450F074D32FF582E43400F583740980DE
:102BC900209000D2E0FFC394064003022C65C29016
:102BD90090016F7450F074D32FF582E43400F583BB
:102BE900E4F09000D2E004F08053C29090016F7439
:102BF90050F0E49000D3F0A3F0A3F0A3F0A3F0A366
:102C0900F09000D2F08037C29090016F7450F0E4D8
:102C1900900153F0804EC29090016F7450F0900073
:102C2900D2E0FF24D3F582E43400F583E4F0EFD356
:102C3900940040069000D2E014F09000D2E0FF1218
:102C49000D7A8018C29090016F7450F09000D2E014
:102C5900FF7B017A0079D31232D98008E490015DB3
:052C6900F0022A240026
:012C6E002243
:050D7A009000DDEFF028
:100D7F00A37403F0A374DEF0A37401F0A37472F0F4
:100D8F00A37419F090013D7404F0A37430F0A374B0
:100D9F0001F0A374B4F0A37403F0A3740AF0A37466
:100DAF0001F0A3745EF0FB7A017D0A7C037F0612CB
:100DBF0040AA9000DDE0B40700400302134C900DF1
:100DCF00D4F8282873020DE9020E17020E2B020E1B
:100DDF0085020F2902102202117690013D7404F052
:100DEF00A37430F0A37401F0A374B4F0A37403F0F0
:100DFF00A3740AF0A37401F0A3745EF0FB7A017D73
:100E0F000A7C037F060240AA9001437405F090000C
:100E1F00DEE0FFA3E0900144CF020F239001437463
:100E2F0005F09000DEE0FFA3E0900144CFF0A3EFC8
:100E3F00F09000E0E0FFA3E0900146CFF0A3EFF0C9
:100E4F00A374FFF0A37442F0A374BDF07B017DFF88
:100E5F007FFF123F759001437405F09000E2E0FFB1
:100E6F00C39000DFE09FFE9000DEE094009001440D
:100E7F00F0A3CE0213279001437405F09000DEE03B
:100E8F00FFA3E0900144CFF0A3EFF09000E0E0FF6C
:100E9F00A3E0900146CFF0A3EFF0A374FFF0A3748B
:100EAF0042F0A374BDF07B017DFF7FFF123F759071
:100EBF0001437405F09000E2E0FFC39000DFE09F74
:100ECF00FE9000DEE09400900144F0A3CEF090007D
:100EDF00E0E0FFA3E0900146CFF0A3EFF0A374FF93
:100EEF00F0A37442F0A374BDF07B017DFF7FFF126E
:100EFF003F759001437405F09000E2E0FF7E00C360
:100F0F009000DFE09FFD9000DEE09ECDC39FFFEDE0
:100F1F009E900144F0A3EF0213279001437405F054
:100F2F009000DEE0FFA3E0900144CFF0A3EFF0903C
:100F3F0000E0E0FFA3E0900146CFF0A3EFF0A37431
:100F4F00FFF0A37442F0A374BDF07B017DFF7FFF20
:100F5F00123F759001437405F09000E2E0FFC390DB
:100F6F0000DFE09FFE9000DEE09400900144F0A3CC
:100F7F00CEF09000E0E0FFA3E0900146CFF0A3EFAA
:100F8F00F0A374FFF0A37442F0A374BDF07B017D56
:100F9F00FF7FFF123F759001437405F09000E2E070
:100FAF00FF7E00C39000DFE09FFD9000DEE09ECD4E
:100FBF00C39FFFED9E900144F0A3EFF09000E0E09F
:100FCF00FFA3E0900146CFF0A3EFF0A374FFF0A3CF
:100FDF007442F0A374BDF07B017DFF7FFF123F755C
:100FEF009001437405F09000E2E0F9FF7E00C3909A
:100FFF0000DFE09FFD9000DEE09ECDC39FFFED9EE2
:10100F00FEE9FDC3EF9DFFEE9400900144F0A3EFC6
:10101F000213279001437405F09000DEE0FFA3E078
:10102F00900144CFF0A3EFF09000E0E0FFA3E09039
:10103F000146CFF0A3EFF0A374FFF0A37442F0A327
:10104F0074BDF07B017DFF7FFF123F7590014374EC
:10105F0005F09000E2E0FFC39000DFE09FFE9000FC
:10106F00DEE09400900144F0A3CEF09000E0E0FFAA
:10107F00A3E0900146CFF0A3EFF0A374FFF0A374A9
:10108F0042F0A374BDF07B017DFF7FFF123F75908F
:10109F0001437405F09000E2E0FF7E00C39000DF93
:1010AF00E09FFD9000DEE09ECDC39FFFED9E90017F
:1010BF0044F0A3EFF09000E0E0FFA3E0900146CFF3
:1010CF00F0A3EFF0A374FFF0A37442F0A374BDF08C
:1010DF007B017DFF7FFF123F759001437405F090F8
:1010EF0000E2E0F9FF7E00C39000DFE09FFD90007B
:1010FF00DEE09ECDC39FFFED9EFEE9FDC3EF9DFF9A
:10110F00EE9400900144F0A3EFF09000E0E0FFA315
:10111F00E0900146CFF0A3EFF0A374FFF0A3744269
:10112F00F0A374BDF07B017DFF7FFF123F7590012F
:10113F00437405F09000E2E0F9FF7E00C39000DFFA
:10114F00E09FFD9000DEE09ECDC39FFFED9EFEE988
:10115F00FD7C00C3EF9DFFEE9CCFC39DCF9C900104
:10116F0044F0A3EF0213279001437405F09000DEC3
:10117F00E0FFA3E0900144CFF0A3EFF09000E0E098
:10118F00FFA3E0900146CFF0A3EFF0A374FFF0A30D
:10119F007442F0A374BDF07B017DFF7FFF123F759A
:1011AF009001437405F09000E2E0FFC39000DFE090
:1011BF009FFE9000DEE09400900144F0A3CEF090EB
:1011CF0000E0E0FFA3E0900146CFF0A3EFF0A3749F
:1011DF00FFF0A37442F0A374BDF07B017DFF7FFF8E
:1011EF00123F759001437405F09000E2E0FF7E001E
:1011FF00C39000DFE09FFD9000DEE09ECDC39FFF18
:10120F00ED9E900144F0A3EFF09000E0E0FFA3E02B
:10121F00900146CFF0A3EFF0A374FFF0A37442F058
:10122F00A374BDF07B017DFF7FFF123F75900143DB
:10123F007405F09000E2E0F9FF7E00C39000DFE05C
:10124F009FFD9000DEE09ECDC39FFFED9EFEE9FD6A
:10125F00C3EF9DFFEE9400900144F0A3EFF09000D8
:10126F00E0E0FFA3E0900146CFF0A3EFF0A374FFFF
:10127F00F0A37442F0A374BDF07B017DFF7FFF12DA
:10128F003F759001437405F09000E2E0F9FF7E0096
:10129F00C39000DFE09FFD9000DEE09ECDC39FFF77
:1012AF00ED9EFEE9FD7C00C3EF9DFFEE9CCFC39D3D
:1012BF00CF9C900144F0A3EFF09000E0E0FFA3E09B
:1012CF00900146CFF0A3EFF0A374FFF0A37442F0A8
:1012DF00A374BDF07B017DFF7FFF123F759001432B
:1012EF007405F09000E2E0F9FF7E00C39000DFE0AC
:1012FF009FFD9000DEE09ECDC39FFFED9EFEE9FDBA
:10130F007C00C3EF9DFFEE9CCFC39DCF9CCFC39DB1
:10131F00CF9C900144F0A3EFF09000E0E0FFA3E03A
:10132F00900146CFF0A3EFF0A374FFF0A37442F047
:0D133F00A374BDF07B017DFF7FFF123F75A1
:01134C00227E
:1032D9009000DAEBF0A3EAF0A3E9F09000D9EFF05F
:1032E900640660030233D2A3E0FBA3E0FAA3E0F98A
:1032F9001227006401703F900001122719640770BA
:10330900359000021227196401702B9000031227CF
:1033190019B40222900004122719B401199000056A
:10332900122719B402109001571229A600000000B3
:103339001247747F00229000DAE0FBA3E0FAA3E0D1
:10334900F9122700640170389000011227196404EA
:10335900702E900002122719640170249000031244
:103369002719B4021B900004122719B40112900006
:1033790005122719B402099001537403F07F002242
:10338900122700640170429000011227196402702B
:10339900389000021227196403702E900003122737
:1033A9001964037024900004122719B402199000BB
:1033B90005122719B40110300004C2008002D2009E
:1033C900E4900153F0FF2280009000DAE0FBA3E0D3
:1033D900FAA3E0F9E41227469000DAE0FBA3E0FA49
:1033E900A3E0F9900001E4122758900002E41227A3
:1033F90058900003E4122758900004E412275890CB
:103409000005E4122758E49000D9F0FF120D7A7FE5
:0234190001228E
:1037B0009000D9E4F0A37402F0A37404F0A374267B
:1037C000F0A3E4F0A37408F09001437401F0A3E4C3
:1037D000F0A37402F0A37404F0A37426F0A374FFA2
:1037E000F0A37442F0A374BFF07B037DFF7FFF1250
:1037F0003F759000DDE0FEA3E0FF7C007D03122713
:103800007A9000DAE02FF09000D9E03EF090013B92
:103810007401F09000D9E0FFA3E090013CCFF0A349
:10382000EFF09000DBE0FFA3E090013ECFF0A3EFCC
:10383000F07B017DFF7FFF121C8E9000DDE0FEA378
:10384000E0FF9000DAE02FF09000D9E03EF0900128
:10385000437401F09000D9E0FFA3E0900144CFF061
:10386000A3EFF09000DBE0FFA3E0900146CFF0A3D0
:10387000EFF0A374FFF0A37442F0A374C3F07B01D4
:103880007DFF7FFF123F759000DDE0FEA3E0FF901B
:1038900000DAE02FF09000D9E03EF090013B740197
:1038A000F09000D9E0FFA3E090013CCFF0A3EFF04F
:1038B0009000DBE0FFA3E090013ECFF0A3EFF0E447
:0838C000FB7DFF7FFF021C8E5F
:104011004143545F54454D503A004D41585F54451A
:104021004D503A0050574D5F564F4C543A0053454E
:10403100545F54494D453A000E009A014600A001D3
:1040410023015401FC009E01230188021F01360156
:10405100AD0116017C0193023F009201060142016C
:10406100CE0574070C00B0021C004300B402AB0380
:104071005401EB026002AB03540521059C02AB0322
:104081005406CC074C02AB035405A305EE03D5043B
:1040910020067906CD03D5042003280464026F03AA
:0940A100910000010203950437AF
:10008E007F02124AD6E4900161F0A3F0900179E06C
:10009E009000DBF01238C8E4FF1246CEE4FF1245A2
:1000AE005FE4FF124493E4FF1245BDE4FF124721C3
:1000BE00E4FF12368C122E39D2A6D2A3D2A2D201CE
:1000CE00D202D203E49000D3F09000D2F09000DC84
:1000DE00F0A3F09000D474FFF0E4A3F0A304F0A317
:1000EE00F0E49000D9F0A3F0122C6F9000E2EEF045
:1000FE00FCA3EFF0FD7FD07E07124336124426A2FA
:10010E00C7E4339000D8F03000030202559001434B
:10011E007401F0E4A3F0A3F0A3F0A3F0A374FFF036
:10012E00A37440F0A37411F07B097DFF7FFF123F93
:10013E00759001437401F0E4A3F0A3F0A3F0A3744F
:10014E0010F0A374FFF0A37440F0A3741BF07B09AE
:10015E007DFF7FFF123F7590011A74FFF0A37401AB
:10016E00F0900174E0FFE4FCFDFE90011C12299A50
:10017E009001207403F0A3E4F0A37448F0A3E4F01C
:10018E00A37410F07BFFE4FD7F021220599001430F
:10019E007401F0E4A3F0A3F0A3F0A37420F0A37411
:1001AE00FFF0A37440F0A37425F07B097DFF7FFF61
:1001BE00123F7590011A74FFF0A37401F09000E2E3
:1001CE00E0FEA3E0FFE4FCFD90011C12299A9001D1
:1001DE00207405F0A3E4F0A37448F0A3E4F0A37434
:1001EE0020F07BFFE4FD7F02122059900143740141
:1001FE00F0E4A3F0A3F0A3F0A37430F0A374FFF027
:10020E00A37440F0A3742FF07B097DFF7FFF123F94
:10021E007590011A74FFF0A37401F0900152E0FF83
:10022E00E4FCFDFE90011C12299A9001207405F049
:10023E00A3E4F0A37448F0A3E4F0A37430F07BFFC2
:10024E00E4FD7F021220597F017E007D007C0012AA
:10025E00005690015DE070030207BA9000DCE0707A
:10026E0002A3E060030207BA124678904039E49385
:10027E00FF7BFF7A40793A1239BFEF14B40E00407B
:10028E00030209A39002A075F003A4C58325F0C54F
:10029E0083730202CA0203310203980203FF0204AF
:1002AE00660204CD0204E00205450205AC020621F9
:1002BE000206960206F602075502078390017EE0BB
:1002CE006405605C300159C29090016F7450F090DB
:1002DE00017E7405F01238C8D293C294E49000DE09
:1002EE00F0A3F07FFA7E007D007C001200561249CA
:1002FE00117FFA7E007D007C001200561238C890E5
:10030E0000DFE004F070069000DEE004F0C3900021
:10031E00DFE094099000DEE0940040C7C293C294DF
:10032E000207B290017EE06404605C300159C29015
:10033E0090016F7450F090017E7404F01238C8D2A0
:10034E0093C294E49000DEF0A3F07FFA7E007D006D
:10035E007C001200561249117FFA7E007D007C004F
:10036E001200561238C89000DFE004F070069000BC
:10037E00DEE004F0C39000DFE094099000DEE0942C
:10038E000040C7C293C2940207B290017EE064039C
:10039E00605C300159C29090016F7450F090017EF4
:1003AE007403F01238C8C293D294E49000DEF0A326
:1003BE00F07FFA7E007D007C001200561249117FFC
:1003CE00FA7E007D007C001200561238C89000DFC5
:1003DE00E004F070069000DEE004F0C39000DFE071
:1003EE0094099000DEE0940040C7C293C2940207C5
:1003FE00B290017EE06402605C300159C2909001BF
:10040E006F7450F090017E7402F01238C8D293C20D
:10041E0094E49000DEF0A3F07FFA7E007D007C0075
:10042E001200561249117FFA7E007D007C001200E8
:10043E00561238C89000DFE004F070069000DEE03F
:10044E0004F0C39000DFE094099000DEE0940040D9
:10045E00C7C293C2940207B290017EE06401605C51
:10046E00300159C29090016F7450F090017E74016A
:10047E00F01238C8D293C294E49000DEF0A3F07F5D
:10048E00FA7E007D007C001200561249117FFA7E22
:10049E00007D007C001200561238C89000DFE00488
:1004AE00F070069000DEE004F0C39000DFE09409E7
:1004BE009000DEE0940040C7C293C2940207B230AF
:1004CE00020DC29090016F7450F0E49000D6F002CD
:1004DE0007B290015EE0D39401405930015690016D
:1004EE003DE4F0A374B4F0A37403F0A37454F0A32A
:1004FE00E4F0A37443F0A37402F0A374ABF0FB7AA0
:10050E00027D437C007F031240AAC29090016F745B
:10051E0050F090015EE014F07F011246CE7F011282
:10052E00368C9000DCE4F0A37464F09000D2740773
:10053E00F00209A30207B290015EE0C3940A505B79
:10054E0030015890013D7402F0A37460F0A374035F
:10055E00F0A37454F0A37401F0A374EBF0A374022F
:10056E00F0A374ABF0FB7A027DEB7C017F031240AB
:10057E00AAC29090016F7450F090015EE004F07F7B
:10058E00011246CE7F0112368C9000DCE4F0A3748B
:10059E0064F09000D27408F00209A30207B2D3905F
:1005AE000171E09432900170E0940040633001607C
:1005BE0090013D7405F0A3749CF0A37403F0A37432
:1005CE0054F0A37405F0A37421F0A37402F0A37485
:1005DE00ABF0FB7A027D217C057F031240AAC2900C
:1005EE0090016F7450F0900171E024CEF090017084
:1005FE00E034FFF07F0112455F7F0112368C9000D0
:10060E00DCE4F0A37464F09000D27409F00209A344
:10061E000207B2C3900171E094E8900170E0940378
:10062E00506330016090013D7407F0A3744CF0A349
:10063E007403F0A37454F0A37406F0A374CCF0A367
:10064E007402F0A374ABF0FB7A027DCC7C067F03C0
:10065E001240AAC29090016F7450F0900171E02484
:10066E0032F0900170E03400F07F0112455F7F019F
:10067E0012368C9000DCE4F0A37464F09000D27417
:10068E000AF00209A30207B2900172E0D39400406F
:10069E005430025190013D7405F0A374DEF0A37442
:1006AE0004F0A3740CF0A37405F0A374A8F0A37463
:1006BE0003F0A374EAF0FB7A037DA87C057F031296
:1006CE0040AAC29090016F7450F0900172E014F045
:1006DE00122E399000DCE4F0A37464F09000D27412
:1006EE000BF00209A30207B2900172E0C394095005
:1006FE005430025190013D7406F0A374BCF0A37403
:10070E0004F0A3740CF0A37406F0A37485F0A37424
:10071E0003F0A374EAF0FB7A037D857C067F031257
:10072E0040AAC29090016F7450F0900172E004F0F4
:10073E00122E399000DCE4F0A37464F09000D274B1
:10074E000CF00209A3805D300229C29090016F74F3
:10075E0050F0900179E004F0E0D3940A4003740164
:10076E00F0900179E09000DBF07F011247217F01CC
:10077E0012368C802F30012C90013D7401F0A304B1
:10078E00F0A37404F0A37437F0E4A3F0A3F0A37401
:10079E0003F0A37495F0FB7A03E4FDFC7F03124093
:1007AE00AA020A7AE490015DF00209A390015DE0CD
:1007BE0060030209A39000DCE07002A3E060030274
:1007CE0009A39000D2E024F8604614606F14700301
:1007DE000208C514700302093F14700302096D2448
:1007EE0005600302099E90013DE4F0A374B4F0A3EA
:1007FE007403F0A37454F0A3E4F0A37443F0A37451
:10080E0002F0A374ABF0FB7A027D437C00020999DF
:10081E0090013D7402F0A37460F0A37403F0A3740E
:10082E0054F0A37401F0A374EBF0A37402F0A3745C
:10083E00ABF0FB7A027DEB7C01020999122C6F90D2
:10084E0000E2EEF0FCA3EFF0FD7FD07E0712433600
:10085E0020003890011A74FFF0A37401F09000E2AA
:10086E00E0FEA3E0FFE4FCFD90011C12299A90012A
:10087E00207405F0A3E4F0A37448F0A3E4F0A3748D
:10088E0020F07BFFE4FD7F0212205990013D74059C
:10089E00F0A3749CF0A37403F0A37454F0A3740536
:1008AE00F0A37421F0A37402F0A374ABF0FB7A02F0
:1008BE007D217C05020999122C6F9000E2EEF0FC6E
:1008CE00A3EFF0FD7FD07E07124336200038900153
:1008DE001A74FFF0A37401F09000E2E0FEA3E0FFB3
:1008EE00E4FCFD90011C12299A9001207405F0A3DE
:1008FE00E4F0A37448F0A3E4F0A37420F07BFFE4CB
:10090E00FD7F0212205990013D7407F0A3744CF044
:10091E00A37403F0A37454F0A37406F0A374CCF084
:10092E00A37402F0A374ABF0FB7A027DCC7C06803C
:10093E005A12442690013D7405F0A374DEF0A374A0
:10094E0004F0A3740CF0A37405F0A374A8F0A374C0
:10095E0003F0A374EAF0FB7A037DA87C05802C12C9
:10096E00442690013D7406F0A374BCF0A37404F009
:10097E00A3740CF0A37406F0A37485F0A37403F0B3
:10098E00A374EAF0FB7A037D857C067F021240AAEF
:10099E00E49000D2F0D39000DDE094009000DCE013
:1009AE009400400CA3E024FFF09000DCE034FFF054
:1009BE009000D6E06003020A94200103020A851219
:1009CE0048B7E49000DEF0A3F0D2A3C2A6E49000F4
:1009DE00E0F0A3F0C39000E1E094E89000E0E09432
:1009EE000350267F017E007D007C00120056900091
:1009FE00E1E004F070069000E0E004F0A2A7E4331A
:100A0E009000D7F0E070CD802AD2A67FE87E037DDD
:100A1E00007C001200569000DFE004F0700690009B
:100A2E00DEE004F0C39000DFE094029000DEE0947C
:100A3E000040969000D7E07006C2A3C2018041D25A
:100A4E00017F0B124AD6C29090016F7450F07FC88E
:100A5E007E007D007C00120056C29090016F745093
:100A6E00F0E490015DF090015DE060FAC2909001BB
:100A7E006F7450F0020D6BD201D2A6D2A31248E4CD
:100A8E009000D67401F0A2C7E433FF9000D8E06F57
:100A9E00604BA2C7E433F0200143E0703690015E54
:100AAE00E0FD7C007E037FE812278C900154EEF06F
:100ABE00A3EFF0C2907FE87E037D007C001200560B
:100ACE00D29020C71890015F7403F0A374E8F0C2AF
:100ADE0002800AD202C29090016F7450F02003700F
:100AEE00D2037F7F7E967D987C00900157E0F8A31D
:100AFE00E0F9A3E0FAA3E0FBC312296250279001AC
:100B0E0057E0FCA3E0FDA3E0FEA3E02401FFE43EDA
:100B1E00FEE43DFDE43CFC90015712299A12477405
:100B2E007F01124493900161E0FEA3E0FFE4FCFD1F
:100B3E007B9F7A867901F8D312294C40139001627B
:100B4E00E004F07006900161E004F07F011245BDF3
:100B5E007F011244FBEF7003020255E4FF1244FBC7
:100B6E00900179E0FF9000DBE06F600CEFF07F0109
:100B7E001247217F0112368C124B21BF01089000C3
:100B8E00DAE004F08005E49000DAF09000DAE0C3D9
:100B9E00940540517F07124AD6E49000DEF0A3F090
:100BAE00124B21EF6401703A9000DFE004F0700602
:100BBE009000DEE004F07F017E007D007C001200DC
:100BCE0056D39000DFE094F49000DEE09401400CE8
:100BDE00E4F0A3F0C29090016F7450F090015DE0CC
:100BEE0060BE020D6B122FF19000D5EFF0200013B6
:100BFE009000D4E0FFA3E06F6009E0FF9000D4F016
:100C0E00123AB19000D5E0FF1249927E009000E0BA
:100C1E00EEF0A3EFF0D39400EE940040089000D9CC
:100C2E00E004F08005E49000D9F09000E0E0FEA32F
:100C3E00E0FFD39400EE940050030202559000D9C9
:100C4E00E094055003020255EF64014E70047F09D3
:100C5E00801E9000E0E07004A3E0640270047F0A3E
:100C6E00800E9000E0E07004A3E0640370057F083E
:100C7E00124AD6E49000DEF0A3F090014304F0E4B3
:100C8E00A3F0A3F0A3F0A3F0A374FFF0A37440F0BD
:100C9E00A37411F07B097DFF7FFF123F7590014316
:100CAE007401F0E4A3F0A3F0A3F0A37410F0A37406
:100CBE00FFF0A37440F0A3741BF07B097DFF7FFF50
:100CCE00123F7590011A74FFF0A37401F090017435
:100CDE00E0FFE4FCFDFE90011C12299A90012074A5
:100CEE0003F0A3E4F0A37448F0A3E4F0A37410F0AF
:100CFE007BFFE4FD7F02122059D39000E1E09400C7
:100D0E009000E0E0940040559000DFE004F07006A3
:100D1E009000DEE004F07F017E007D007C0012007A
:100D2E0056D39000DFE094F49000DEE0940140276B
:100D3E00E4F0A3F0C29090016F7450F0122FF19076
:100D4E0000D5EFF0123AB19000D5E0FF1249929023
:100D5E0000E0E4F0A3EFF090015DE0609CE4900110
:0C0D6E0053F000D2A6D2A3D2A2024B7513
:10499200EFB4FF037F0122EFB4FE037F02229001F6
:1049A20074E0240AFDE433FCC3EF9DEC6480F874E8
:0A49B200809840037F03227F00225B
:1041C2001001DE025400BE01380316039300BE0143
:1041D2003801DE0254014801C0031603930148016D
:1041E200C001DE025401D5024C0316039301D5022D
:1041F2004C03ED046A00BE0138052705A600BE0186
:104202003803ED046A014801C0052705A6014801EB
:10421200C003ED046A01D5024C052705A601D502AB
:104222004C02E6035F02DC0356041C049C02DC031E
:1042320056000000960000009606E0077F0000008E
:0142420096E5
:1023E6007F0C124AD612341BE4FF123E1B7F0112E9
:1023F6003E1B7F02123E1B7F03123E1B7F04123ED2
:102406001B7F05123E1B12001E900170E4F0A374A0
:1024160032F0122C6F9000D5EEF0FCA3EFF0FD7FAA
:10242600D07E071243367F017E007D007C001200BD
:102436005690015DE070030226061246789041C26E
:10244600E493FF7BFF7A4179C31239BF9000D2EF44
:10245600F0D3940C400302257BE094005003022540
:102466007BC29090016F7450F09000D2E0FD24FF83
:10247600FFE434FFC313EF139000D4F0ED30E067B0
:10248600E0FF701AEF25E02463F582E43401F5835A
:10249600E0FEA3E0D39464EE9400404980309000BF
:1024A600D4E0FF25E02461F582E43401F583E0FC05
:1024B600A3E02464FDE43CFCEF25E02463F582E41C
:1024C6003401F583E0FEA3E0D39DEE9C4017900017
:1024D600D4E025E02463F582E43401F58374FF75C6
:1024E600F09C1227E1806F9000D4E0B4052125E02E
:1024F6002463F582E43401F583E0FEA3E0FFE4FC07
:10250600FD7B747A40F9F8D312294C40498031900A
:1025160000D4E0FF25E02465F582E43401F583E08C
:10252600FCA3E0249CFDEC34FFFCEF25E02463F5DE
:1025360082E43401F583E0FEA3E0C39DEE9C5016D1
:102546009000D4E025E02463F582E43401F583E4C9
:1025560075F0641227E19000D4E0FF123E1B900054
:10256600D4E0049000D3F07F647E007D007C0012EE
:10257600005602242C9000D2E0FF640D7003022462
:102586002CEF640E700302242CEFB40F10C290904F
:10259600016F7450F0E4900153F00226FCEF6410D2
:1025A600600302242CC29090016F7450F090016376
:1025B6007403F0A374E8F0A3740FF0A374A0F0A35F
:1025C600741BF0A37458F0A37427F0A37410F0A33F
:1025D6007432F0A374C8F0A3743EF0A37480F0E4E0
:1025E600FF1248087F011248087F021248087F033D
:1025F6001248087F041248087F051248080226FC84
:102606009000D3E024FE603B14605A146079147085
:10261600030226AF1470030226D1240560030226A6
:10262600F4900170E4F0A37432F0122C6F9000D590
:10263600EEF0FCA3EFF0FD7FD07E07124336E4FFF9
:102646000226F1900170E4F0A374C8F0122C6F908A
:1026560000D5EEF0FCA3EFF0FD7FD07E07124336E7
:102666007F010226F19001707401F0A37490F012BC
:102676002C6F9000D5EEF0FCA3EFF0FD7FD07E0727
:102686001243367F0280649001707402F0A374587E
:10269600F0122C6F9000D5EEF0FCA3EFF0FD7FD08A
:1026A6007E071243367F0380429001707403F0A3C5
:1026B6007420F0122C6F9000D5EEF0FCA3EFF0FD25
:1026C6007FD07E071243367F04802090017074030A
:1026D600F0A374E8F0122C6F9000D5EEF0FCA3EF97
:1026E600F0FD7FD07E071243367F05124808E4903E
:0A26F60000D3F002242C00024B6F09
:103E1B00EF14601B14602314602B14603B14604C74
:103E2B002405705A9000D77402F0A3747C801F9005
:103E3B0000D77402F0A3747C80279000D77402F033
:103E4B00A3747C80309000D77404F0A3748EF0A31D
:103E5B00E4F0A374E3F080269000D77404F0A3740D
:103E6B008EF0A37401F0A3746DF080129000D774E0
:103E7B0004F0A3748EF0A37401F0A374F7F0EF2594
:103E8B00E02463F582E43401F583E0FEA3E0FFE474
:103E9B00FCFD90011C12299AE490011AF0A3740501
:103EAB00F0900120F09000D7E0FFA3E0900121CF2C
:103EBB00F0A3EFF09000D9E0FFA3E0900123CFF047
:0C3ECB00A3EFF0E4FB7D017F0C02205906
:10001E00E490011AF0A37405F0900152E0FFE4FCA5
:10002E00FDFE90011C12299A9001207402F0A30487
:10003E00F0A374A4F0A37403F0A3E4F0FB7D017F9E
:04004E000C02205927
:1046780090015DE0F4704E90017AE0FF900175E4DE
:10468800F0A3EFF0E07F00FE900175F0A3EFF0904B
:10469800017CE0FDEDFF900175EEF0A3EFF09001D5
:1046A8007BE0FF900177E4F0A3EFF0E07F00FE905D
:1046B8000177F0A3EFF090017DE0FDEDFF90017729
:0646C800EEF0A3EFF0226A
:0539BF009000E4EFF0B0
:1039C400E4A3F0A3F09000E4E0FF9000E6E0C39FDE
:1039D4004003023AABE075F004A4FDACF025E0FF2F
:1039E400EC338F82F5831227F7FF9000E7E5F0F0C0
:1039F400A3EFF00DBD00010CED25E0FFEC338F8249
:103A0400F5831227F7FF9000EBE5F0F0A3EFF00D3C
:103A1400BD00010CED25E0FFEC338F82F583122706
:103A2400F7FF9000E9E5F0F0A3EFF00DBD00010C05
:103A3400ED25E0FFEC338F82F5831227F7FF90002A
:103A4400EDE5F0F0A3EFF09000E7E0FEA3E0FF90D7
:103A54000175E0FCA3E0FDC39FEC9E40419000EBA8
:103A6400E0FEA3E0FFD3ED9FEC9E50329000E9E02E
:103A7400FEA3E0FF900177E0FCA3E0FDC39FEC9E72
:103A8400401C9000EDE0FEA3E0FFD3ED9FEC9E50C0
:103A94000D9000E6E09000E5F0E004F0800990006D
:0C3AA400E6E004F00239C99000E5E0FF04
:013AB00022F3
:104A670030003100320033003400350036003700A3
:0E4A7700380039002E00560041004200200099
:104B38007FCC1200037F331200037FC31200037F70
:044B48003C02000328
:104AD6009000E4EFF07FAA1200037F7012000390AB
:0A4AE60000E4E0FF120003024B3869
:1040AA00900138EFF0A3ECF0A3EDF0A3EAF0A3EB54
:1040BA00F07FAA1200037F71120003900138E0FF1B
:1040CA00120003900139E0FF120003900139A3E0C6
:1040DA00FF12000390013BE0FF12000390013BA393
:1040EA00E0FF12000390013DE0FF12000390013D42
:1040FA00A3E0FF12000390013FE0FF1200039001CA
:10410A003FA3E0FF120003900141E0FF1200039079
:10411A000141A3E0FF120003900143E0FF120003F4
:0C412A00900143A3E0FF120003024B3899
:0B3F7500900140EFF0A3EDF0A3EBF093
:103F80007FAA1200037F98120003900144E0FF1201
:103F90000003900144A3E0FF120003900146E0FFFC
:103FA000120003900146A3E0FF120003E4FF120099
:103FB000037F81120003900143E0FF120003900190
:103FC00040E0FF120003900141E0FF120003E4FF14
:103FD000120003E4FF120003E490014BF090014251
:103FE000E0FF90014BE0C39F5024900148E0FBA309
:103FF000E0FAA3E0F9122700FF120003900149E460
:1040000075F0011227E190014BE004F080CF024BE4
:014010003877
:101C8E00900138EFF0A3EDF0EBB40F00400302200B
:101C9E0058901CA6F8282873021CD3021D0F021D93
:101CAE004B021D87021DC3021DFF021E3B021E7743
:101CBE00021EB3021EEF021F2B021F67021FA3029A
:101CCE001FDE022019900138E0FFA3E0FD90013BDA
:101CDE00E0900143F090013CE0FBA3E0900144CB87
:101CEE00F0A3EBF090013EE0FBA3E0900146CBF0B9
:101CFE00A3EBF0A374FFF0A3744AF0A37467022061
:101D0E0052900138E0FFA3E0FD90013BE0900143CB
:101D1E00F090013CE0FBA3E0900144CBF0A3EBF08C
:101D2E0090013EE0FBA3E0900146CBF0A3EBF0A3C5
:101D3E0074FFF0A3744AF0A3746902205290013824
:101D4E00E0FFA3E0FD90013BE0900143F090013CE9
:101D5E00E0FBA3E0900144CBF0A3EBF090013EE05A
:101D6E00FBA3E0900146CBF0A3EBF0A374FFF0A32E
:101D7E00744AF0A3746B022052900138E0FFA3E086
:101D8E00FD90013BE0900143F090013CE0FBA3E0AD
:101D9E00900144CBF0A3EBF090013EE0FBA3E0906A
:101DAE000146CBF0A3EBF0A374FFF0A3744AF0A3AB
:101DBE00746D022052900138E0FFA3E0FD90013BCC
:101DCE00E0900143F090013CE0FBA3E0900144CB96
:101DDE00F0A3EBF090013EE0FBA3E0900146CBF0C8
:101DEE00A3EBF0A374FFF0A3744AF0A3746F022068
:101DFE0052900138E0FFA3E0FD90013BE0900143DB
:101E0E00F090013CE0FBA3E0900144CBF0A3EBF09B
:101E1E0090013EE0FBA3E0900146CBF0A3EBF0A3D4
:101E2E0074FFF0A3744AF0A374710220529001382B
:101E3E00E0FFA3E0FD90013BE0900143F090013CF8
:101E4E00E0FBA3E0900144CBF0A3EBF090013EE069
:101E5E00FBA3E0900146CBF0A3EBF0A374FFF0A33D
:101E6E00744AF0A37473022052900138E0FFA3E08D
:101E7E00FD90013BE0900143F090013CE0FBA3E0BC
:101E8E00900144CBF0A3EBF090013EE0FBA3E09079
:101E9E000146CBF0A3EBF0A374FFF0A3744AF0A3BA
:101EAE007475022052900138E0FFA3E0FD90013BD3
:101EBE00E0900143F090013CE0FBA3E0900144CBA5
:101ECE00F0A3EBF090013EE0FBA3E0900146CBF0D7
:101EDE00A3EBF0A374FFF0A3744AF0A3747702206F
:101EEE0052900138E0FFA3E0FD90013BE0900143EA
:101EFE00F090013CE0FBA3E0900144CBF0A3EBF0AB
:101F0E0090013EE0FBA3E0900146CBF0A3EBF0A3E3
:101F1E0074FFF0A3744AF0A3747902205290013832
:101F2E00E0FFA3E0FD90013BE0900143F090013C07
:101F3E00E0FBA3E0900144CBF0A3EBF090013EE078
:101F4E00FBA3E0900146CBF0A3EBF0A374FFF0A34C
:101F5E00744AF0A3747B022052900138E0FFA3E094
:101F6E00FD90013BE0900143F090013CE0FBA3E0CB
:101F7E00900144CBF0A3EBF090013EE0FBA3E09088
:101F8E000146CBF0A3EBF0A374FFF0A3744AF0A3C9
:101F9E00747D022052900138E0FFA3E0FD90013BDA
:101FAE00E0900143F090013CE0FBA3E0900144CBB4
:101FBE00F0A3EBF090013EE0FBA3E0900146CBF0E6
:101FCE00A3EBF0A374FFF0A3744AF0A3747F8074A4
:101FDE00900138E0FFA3E0FD90013BE0900143F05B
:101FEE0090013CE0FBA3E0900144CBF0A3EBF0901A
:101FFE00013EE0FBA3E0900146CBF0A3EBF0A3740F
:10200E00FFF0A3744AF0A374818039900138E0FF89
:10201E00A3E0FD90013BE0900143F090013CE0FB1A
:10202E00A3E0900144CBF0A3EBF090013EE0FBA3C4
:10203E00E0900146CBF0A3EBF0A374FFF0A3744A3B
:0B204E00F0A37483F07B01123F7522A9
:0B205900900117EFF0A3EDF0A3EBF0F7
:10206400E490012FF07B0AFAF9F890011CE0FCA33C
:10207400E0FDA3E0FEA3E0FF1228BA900125EBF0F7
:10208400E47B0AFAF9F890011CE0FCA3E0FDA3E06C
:10209400FEA3E0FF1228BAE47B0AFAF9F81228BA80
:1020A400900126EBF0E47B64FAF9F890011CE0FC63
:1020B400A3E0FDA3E0FEA3E0FF1228BAE47B0AFA42
:1020C400F9F81228BA900127EBF0E47BE87A03F9D7
:1020D400F890011CE0FCA3E0FDA3E0FEA3E0FF12E6
:1020E40028BAE47B0AFAF9F81228BA900128EBF02E
:1020F400E47B107A27F9F890011CE0FCA3E0FDA32F
:10210400E0FEA3E0FF1228BAE47B0AFAF9F81228E9
:10211400BA900129EBF07BA07A86790178009001CE
:102124001CE0FCA3E0FDA3E0FEA3E0FF1228BAE458
:102134007B0AFAF9F81228BA90012AEBF07B407A6C
:1021440042790F780090011CE0FCA3E0FDA3E0FEBF
:10215400A3E0FF1228BAE47B0AFAF9F81228BA902D
:10216400012BEBF07B807A967998780090011CE043
:10217400FCA3E0FDA3E0FEA3E0FF1228BAE47B0A7F
:10218400FAF9F81228BA90012CEBF090011BE0B494
:102194000B0040030222459021A2F8282873022153
:1021A400C30221CF0221DB0221E70221F30221FF36
:1021B40002220B02221702222302222F02223B9028
:1021C400012D7406F0A3740CF0807690012D740830
:1021D400F0A37410F0806A90012D740CF0A37418AD
:1021E400F0805E90012D7410F0A37420F080529062
:1021F400012D7414F0A37428F0804690012D7418F6
:10220400F0A37430F0803A90012D741CF0A374385C
:10221400F0802E90012D7420F0A37440F080229061
:10222400012D7428F0A37450F0801690012D7430A1
:10223400F0A37460F0800A90012D7438F0A37470D8
:10224400F0900117E0FBC394FF506790012DE0FF6D
:10225400900120E08FF0A4FFA3E0FCA3E0FD2FFE9B
:10226400EC35F090013DF0A3CEF0AF03C007900130
:1022740023E0FAA3E0FB90012EE0FF7E009001230F
:10228400E0F8A3E02FFFEE3890013FF0A3EFF090C9
:102294000121E0FFA3E0900141CFF0A3EFF0900112
:1022A40023E0FFA3E0900143CFF0A3EFF0D00712A7
:1022B40040AA90011CE0FCA3E0FDA3E0FEA3E0FF24
:1022C40090013412299A90012FE004F0900134E037
:1022D400FCA3E0FDA3E0FEA3E0FFE47B0AFAF9F827
:1022E4001228BA90013412299AE4FFFEFDFC9001F1
:1022F40034E0F8A3E0F9A3E0FAA3E0FBD3122962E7
:1023040050C4900120E0FF90012FE09F4002EFF0C5
:10231400900118E0FF7011900121E0FDA3E090010D
:1023240030CDF0A3EDF08045EF90012FB40115E01E
:10233400FF900120E0C39FFFE49400FE90012DE094
:10234400C3138011E0FF900120E0C39FFFE49400D9
:10235400FE90012DE0FD7C0012277A900122E02FEF
:10236400FF900121E03E900130F0A3EFF0900123B3
:10237400E0FFA3E0900132CFF0A3EFF090012FE053
:1023840014F090011AE0FD90012FE02425F582E479
:102394003401F583E0FB90011BE090013BF09001D8
:1023A40030E0FFA3E090013CCFF0A3EFF0900132C6
:1023B400E0FFA3E090013ECFF0A3EFF0900119E01D
:1023C400FF121C8E90012DE0FF900131E02FF09060
:1023D4000130E03400F0000090012FE0D39400506D
:0123E4009B5D
:0123E50022D5
:0B17FD009000E4EFF0A3EDF0A3EBF090
:101808009000E8E0B40B00400302190390181BF89D
:1018180028287302183C02184F0218620218750231
:1018280018870218990218AB0218BD0218CF0218BF
:10183800E10218F39000FBE4F0A37406F0A3E4F0CF
:10184800A3740CF00219039000FBE4F0A37408F0F1
:10185800A3E4F0A37410F00219039000FBE4F0A3D2
:10186800740CF0A3E4F0A37418F00219039000FBC1
:10187800E4F0A37410F0A3E4F0A37420F0807C904B
:1018880000FBE4F0A37414F0A3E4F0A37428F08040
:101898006A9000FBE4F0A37418F0A3E4F0A374309A
:1018A800F080589000FBE4F0A3741CF0A3E4F0A3CC
:1018B8007438F080469000FBE4F0A37420F0A3E4B1
:1018C800F0A37440F080349000FBE4F0A37428F097
:1018D800A3E4F0A37450F080229000FBE4F0A3741A
:1018E80030F0A3E4F0A37460F080109000FBE4F003
:1018F800A37438F0A3E4F0A37470F09000EBE0FC5C
:10190800A3E0FDA3E0FEA3E0FF90010312299AE4FF
:101918009000F7F09000F7E004F0900103E0FCA3DA
:10192800E0FDA3E0FEA3E0FFE47B0AFAF9F8122841
:10193800BA90010312299AE4FFFEFDFC900103E02E
:10194800F8A3E0F9A3E0FAA3E0FBD312296250C49C
:101958009000F7E0FFA3F09000E9E0FEEF9E40055D
:101968009000F8EEF09000EFE0FCA3E0FDA3E0FEAD
:10197800A3E0FF90010312299AE49000F7F0900089
:10198800F7E004F0900103E0FCA3E0FDA3E0FEA370
:10199800E0FFE47B0AFAF9F81228BA900103122949
:1019A8009AE4FFFEFDFC900103E0F8A3E0F9A3E050
:1019B800FAA3E0FBD312296250C49000F7E0FF902D
:1019C80000F9F09000E9E0FEEF9E40059000F9EE86
:1019D800F09000F9E0FF9000F8E0B507069000EA03
:1019E800E0707C9000E9E0FFE4FCFDFE900103124A
:1019F800299A9000FBE0FEA3E0FFE4FCFD900103C0
:101A0800E0F8A3E0F9A3E0FAA3E0FB12282F900086
:101A1800F3E0FCA3E0FD2FFFEC3E90013DF0A3EFC7
:101A2800F09000F5E0FEA3E0FF9000FEE02FFF90AD
:101A380000FDE03E90013FF0A3EFF0A3ECF0A3ED32
:101A4800F09000F5A3E0FF900143EEF0A3EFF090D3
:101A580000F5E0FAA3E0FB9000E4E0FF1240AA9052
:101A680000F8E09000F7F09000E5E0FB70239000AC
:101A7800F7E024FFFFE434FFFE9000FBE0FCA3E066
:101A8800FD12277A9000F4E02FFF9000F3E03E80EB
:101A98006FEB640170499000F7E0F9FF9000E9E00E
:101AA800C39FFBE49400FA9000FBE0C313FCA3E09F
:101AB80013FDAF03AE0212277A9000F4E02FFB90DB
:101AC80000F3E03EFAE924FFFFE434FFFE9000FB58
:101AD800E0FCA3E0FD12277AEF2BFFEE3A8021907D
:101AE80000E9E024FFFFE434FFFE9000FBE0FCA3E4
:101AF800E0FD12277A9000F4E02FFF9000F3E03E1B
:101B08009000FFF0A3EFF09000F5E0FFA3E0900154
:101B180001CFF0A3EFF09000EBE0FCA3E0FDA3E021
:101B2800FEA3E0FF90010312299A9000EFE0FCA3C6
:101B3800E0FDA3E0FEA3E0FF90010712299A9000C0
:101B4800F7E014F09000F9E0FF9000F8E0FEB50728
:101B5800069000EAE070089000FA74FFF0800890A0
:101B680000E4E09000FAF0EEB507529000EAE06079
:101B78004CE47B0AFAF9F8900107E0FCA3E0FDA326
:101B8800E0FEA3E0FF1228BAAC00AD01AE02AF033D
:101B9800C004C005C006C007E47B0AFAF9F8900142
:101BA80003E0FCA3E0FDA3E0FEA3E0FF1228BAD007
:101BB80007D006D005D004C3122962606B9000E7F5
:101BC800E090011AF09000E8E090011BF0E47B0A35
:101BD800FAF9F8900103E0FCA3E0FDA3E0FEA3E01E
:101BE800FF1228BAAC00AD01AE02AF0390011C127F
:101BF800299A9001207401F09000FFE0FFA3E09083
:101C08000121CFF0A3EFF0900101E0FFA3E09001E4
:101C180023CFF0A3EFF09000E6E0FB9000E5E0FDB5
:101C28009000FAE0FF122059900103E0FCA3E0FDC8
:101C3800A3E0FEA3E0FFE47B0AFAF9F81228BA90C1
:101C4800010312299A900107E0FCA3E0FDA3E0FE3E
:101C5800A3E0FFE47B0AFAF9F81228BA9001071208
:101C6800299A9000FBE0FEA3E0FFC3900100E09FEB
:101C7800F09000FFE09EF000009000F7E0D39400A1
:051C88004003021B46B1
:011C8D002234
:0B134D009000F1EFF0A3EDF0A3EBF037
:101358009000F5E0B40B00400302140E90136BF8F4
:1013680028287302138C0213980213A40213B002E4
:1013780013BC0213C80213D40213E00213EC0213C5
:10138800F80214049001047406F0A3740CF080763B
:101398009001047408F0A37410F0806A900104743A
:1013A8000CF0A37418F0805E9001047410F0A3741C
:1013B80020F080529001047414F0A37428F0804641
:1013C8009001047418F0A37430F0803A900104740A
:1013D8001CF0A37438F0802E9001047420F0A374DC
:1013E80040F080229001047428F0A37450F0801615
:1013F8009001047430F0A37460F0800A90010474C2
:1014080038F0A37470F09000F8E0FCA3E0FDA3E0CE
:10141800FEA3E0FF90010F12299AE4900106F090D4
:101428000106E004F090010FE0FCA3E0FDA3E0FE5C
:10143800A3E0FFE47B0AFAF9F81228BA90010F1228
:10144800299AE4FFFEFDFC90010FE0F8A3E0F9A360
:10145800E0FAA3E0FBD312296250C4900106E0FF32
:1014680094035006A37404F080169000F6E0FEEF93
:10147800D39E4005900106EEF0900106E004A3F02B
:101488009000FCE0FCA3E0FDA3E0FEA3E0FF9001D8
:101498000F12299AE4900106F0900106E004F090FA
:1014A800010FE0FCA3E0FDA3E0FEA3E0FFE47B0A5C
:1014B800FAF9F81228BA90010F12299AE4FFFEFDF2
:1014C800FC90010FE0F8A3E0F9A3E0FAA3E0FBD356
:1014D80012296250C4900106E0FF9403500890015D
:1014E800087404F080189000F6E0FEEFD39E4005E3
:1014F800900106EEF0900106E004900108F09001DA
:1015080008E0FF900107E0B507069000F7E0706873
:10151800900104E0FF9000F6E08FF0A4FF90010036
:10152800E0FCA3E0FD2FFEEC35F090013DF0A3CEEA
:10153800F0900102E0FAA3E0FB900105E0FF7E00D5
:10154800900102E0F8A3E02FFFEE3890013FF0A3EE
:10155800EFF0900100E0FFA3E0900141CFF0A3EF8E
:10156800F0900102E0FFA3E0900143CFF0A3EFF079
:101578009000F1E0FF1240AA900107E0900106F008
:101588009000F2E0FB7025900106E024FFFFE434B0
:10159800FFFE900104E0FD7C0012277A900101E033
:1015A8002FFF900100E03E90010B8061EB64017019
:1015B80043900106E0F9FF9000F6E0C39FFFE49432
:1015C80000FE900104E0C313FD7C0012277A90010D
:1015D80001E02FFB900100E03EFAE924FFFFE4342C
:1015E800FFFE900104E0FD12277AEF2BFFEE3A9000
:1015F800010B80199000F6E024FFFFE434FFFE9011
:101608000104E0FD7C0012277A90010BEEF0A3EFB5
:10161800F0900102E0FFA3E090010DCFF0A3EFF0FE
:101628009000F8E0FCA3E0FDA3E0FEA3E0FF90013A
:101638000F12299A9000FCE0FCA3E0FDA3E0FEA3B2
:10164800E0FF90011312299AE490010AF090010634
:10165800E014F0900108E0FF900107E0FEB50706EE
:101668009000F7E0700890010974FFF0800890007E
:10167800F1E0900109F090010AE06402700302179A
:1016880086EEB507529000F7E0604CE47B0AFAF961
:10169800F8900113E0FCA3E0FDA3E0FEA3E0FF1235
:1016A80028BAAC00AD01AE02AF03C004C005C00645
:1016B800C007E47B0AFAF9F890010FE0FCA3E0FD0B
:1016C800A3E0FEA3E0FF1228BAD007D006D005D0C9
:1016D80004C3122962606B9000F4E090011AF09044
:1016E80000F5E090011BF0E47B0AFAF9F890010F8D
:1016F800E0FCA3E0FDA3E0FEA3E0FF1228BAAC00E3
:10170800AD01AE02AF0390011C12299A900120741A
:1017180001F090010BE0FFA3E0900121CFF0A3EFCF
:10172800F090010DE0FFA3E0900123CFF0A3EFF0CC
:101738009000F3E0FB9000F2E0FD900109E0FF1259
:10174800205990010FE0FCA3E0FDA3E0FEA3E0FF19
:10175800E47B0AFAF9F81228BA90010F12299A9034
:101768000113E0FCA3E0FDA3E0FEA3E0FFE47B0A95
:10177800FAF9F81228BA90011312299A804F9001A9
:1017880008E0FF900107E0B507069000F7E0703D1C
:101798009000F3E0FFA3E0FDA3E0900143F0900187
:1017A8000BE0FBA3E0900144CBF0A3EBF090010D1C
:1017B800E0FBA3E0900146CBF0A3EBF0A374FFF0AD
:1017C800A3744AF0A3747BF07B01123F7590010467
:1017D800E0FFC390010CE09FF090010BE09400F053
:1017E80090010AE004F00000900106E0D394004064
:0417F800030216557D
:0117FC0022CA
:103C8200E4FFFE1249BCE4FCFDFE90015712299AA2
:103C9200900157E0FCA3E0FDA3E0FEA3E0FF78085B
:103CA20012298790015712299A900157E0F8A3E050
:103CB200F9A3E0FAA3E0FBC000C001C002C0037F89
:103CC200017E001249BCD003D002D001D000EB4FDC
:103CD200FFEAFEE9FDE8FC90015712299A9001578C
:103CE200E0FCA3E0FDA3E0FEA3E0FF780812298731
:103CF20090015712299A900157E0F8A3E0F9A3E046
:103D0200FAA3E0FBC000C001C002C0037F027E0034
:103D12001249BCD003D002D001D000EB4FFFEAFE23
:103D2200E9FDE8FC90015712299A7F7F7E967D98E3
:103D32007C00900157E0F8A3E0F9A3E0FAA3E0FBCE
:103D4200D3122962400D9001571229A60098967F3E
:043D5200124774227E
:10477400E4FBFA7901F8900157E0FCA3E0FDA3E023
:10478400FEA3E0FF1228BAAD07E4FFFE1249E19050
:104794000157A3A3E0FEA3E0FFE4FDFCFB7A01F9CB
:1047A400F81228BAAD077F017E001249E190015743
:1047B400E0FCA3A3A3E0FFE4AD077F02FE0249E10E
:104B09007F037E001249BC900174EFF0D3945A40A0
:084B1900067432F012000E22B6
:0C000E00900174E0FD7F037E000249E1D8
:0543AE009000D8EFF0C3
:1043B30025E02404FFA3F07E001249BC9000D8E05E
:1043C300FD25E02463F582E43401F583E4F0A3EFF3
:1043D300F0ED25E02463F582E43401F583C083C066
:1043E30082A3E0D082D083F0A3E4F0ED25E0246340
:1043F300F582E43401F583C083C082E0FEA3E0FFCD
:10440300C007C0069000D9E02401FFE433FE12493F
:10441300BCEFFDD0E0FFD0E04DD082D083CFF0A33E
:02442300EFF0B8
:014425002274
:054808009000D8EFF064
:10480D00E0FF25E02404A3F0FCEF25E02463F5820E
:10481D00E43401F583E0FDECFF7E001249E19000E8
:10482D00D8E025E02463F582E43401F583A3E0FDAF
:0D483D009000D9E02401FFE433FE0249E1C0
:10341B00E49000D7F09000D7E0FFC39406500B1256
:10342B0043AE9000D7E004F080EB900165E0FEA383
:10343B00E0FFC3900164E09F900163E09E400302B4
:10344B003510900167E0FCA3E0FDC3EF9DEE9C40BF
:10345B0003023510A3E0FEA3E0FFC3ED9FEC9E40FB
:10346B0003023510A3E0FCA3E0FDC3EF9DEE9C40EF
:10347B0003023510A3E0FEA3E0FFC3ED9FEC9E40DB
:10348B0003023510900163E07002A3E06077E4FC67
:10349B00FD7B747A40F9F8C312294C4068900163A4
:1034AB00E0FEA3E0FF7C007D6412278CED4C705591
:1034BB00A3E0FEA3E0FF7C007D6412278CED4C7033
:1034CB0044A3E0FEA3E0FF7C007D6412278CED4C4F
:1034DB007033A3E0FEA3E0FF7C007D6412278CED2C
:1034EB004C7022A3E0FEA3E0FF7C007D6412278CCE
:1034FB00ED4C7011A3E0FEA3E0FF7C007D6412276E
:10350B008CED4C604C9001637403F0A374E8F0A352
:10351B00740FF0A374A0F0A3741BF0A37458F0A362
:10352B007427F0A37410F0A37432F0A374C8F0A343
:10353B00743EF0A37480F0E49000D7F09000D7E0D5
:10354B00FFC39406500B1248089000D7E004F0809C
:01355B00EB84
:01355C00224C
:104B210030CA117F017E007D007C0012005630CA20
:074B3100037F01227F002237
:102C6F00900170E0FEA3E0FF7C007D3212278CE420
:102C7F00FCFD9000E812299AE47F01FEFDFC900014
:102C8F00E8E0F8A3E0F9A3E0FAA3E0FBC31229629E
:102C9F00700E900163E0FEA3E0FFE4FCFD022E281E
:102CAF00E47B04FAF9F89000E8E0FCA3E0FDA3E070
:102CBF00FEA3E0FF1228BA9000E412299AE47F05E0
:102CCF00FEFDFC9000E4E0F8A3E0F9A3E0FAA3E036
:102CDF00FBD3122962400A9000E41229A6000000DB
:102CEF0005E4FFFEFDFC9000E4E0F8A3E0F9A3E0AB
:102CFF00FAA3E0FBC312296270629000E8E0FCA324
:102D0F00E0FDA3E0FEA3E024FFFBEE34FFFAED3479
:102D1F00FFF9EC34FFF8900163E0FEA3E0FFC390EE
:102D2F000166E09FFF900165E09EFEE4FCFD122826
:102D3F002FE47B03FAF9F81228BAA804A905AA060A
:102D4F00AB07900163E0FEA3E0FFE4FCFDEB2FFF78
:102D5F00EA3EFEED39FDEC38FC022E28E47F05FE3D
:102D6F00FDFC9000E4E0F8A3E0F9A3E0FAA3E0FB98
:102D7F00C3122962700E90016DE0FEA3E0FFE4FC28
:102D8F00FD022E289000E4A3A3E0FEA3E0900163D0
:102D9F0075F0021229D7EE25E02583F583E0FEA317
:102DAF00E0FF9000E4A3A3E0FAA3E090016575F0C3
:102DBF00021229D7EA25E02583F583E0FCA3E0C3BF
:102DCF009FFFEC9EAB07FAE4F9F89000E8A3A3A3EA
:102DDF00E05403FFE4FEFDFC12282FE47B04FAF914
:102DEF00F81228BAA804A905AA06AB079000E4A315
:102DFF00A3E0FEA3E090016375F0021229D7EE2540
:102E0F00E02583F583E0FEA3E0FFE4FCFDEB2FFF5D
:102E1F00EA3EFEED39FDEC38FC9000EC12299A9059
:092E2F0000ECA3A3E0FEA3E0FF08
:012E38002277
:10442600900172E0B40A005063904436F82828736D
:1044360002445402445702445D0244630244690242
:10444600446F02447502447B024481024487024B56
:10445600757DB87C06802E7D667C0880287D147C60
:104466000A80227DC27C0B801C7D707C0D80167DAF
:104476001E7C0F80107DCC7C10800A7D7A7C128099
:0D448600047D287C147FD07E071242432263
:1038C80090017EE0B4032790013D7401F0A374CA0F
:1038D800F0A37401F0A374CAF0A3E4F0A37468F031
:1038E800A3E4F0A37479F07B017A000239B5900162
:1038F8007EE0B4022B90013D7403F0A37495F0A30D
:103908007401F0A374CAF0A3E4F0A37468F0A3E40C
:10391800F0A37479F07B017A007DCC7C010239B97F
:1039280090017EE0B4012A90013D7405F0A3746013
:10393800F0A37401F0A374CAF0A3E4F0A37468F0D0
:10394800A3E4F0A37479F07B017A007D977C03806F
:103958006090017EE0B4052A90013D7407F0A374DD
:103968002BF0A37401F0A374CAF0A3E4F0A3746865
:10397800F0A3E4F0A37479F07B017A007D627C0502
:10398800802F90017EE0B4042D90013D7401F0A3D6
:1039980074CAF0A37403F0A37495F0A3E4F0A374BD
:1039A80068F0A3E4F0A37479F07BCC7A017D017C04
:0739B800007F041240AA2267
:1049110090013D7402F0A37431F0A37402F0A3740A
:1049210042F0A3E4F0A37468F0A3E4F0A37479F077
:0C493100FB7A007D687C007F020240AA37
:102E3900900172E0B40A004003022FF0902E4CF882
:102E4900282873022E6A022E90022EB6022EDC0268
:102E59002F02022F27022F4C022F71022F98022FC7
:102E6900C190013D7401F0A3740CF0A3E4F0A374C4
:102E79001FF0A37405F0A374ADF0A37403F0A37459
:102E8900CDF07B01022F9490013D7401F0A3740CE5
:102E9900F0A3E4F0A3743FF0A37405F0A374ADF0BC
:102EA900A37403F0A374CDF07B21022F9490013D0C
:102EB9007401F0A3740CF0A3E4F0A3745FF0A3749D
:102EC90005F0A374ADF0A37403F0A374CDF07B41B6
:102ED900022F9490013D7401F0A3740CF0A3E4F067
:102EE900A3747FF0A37405F0A374ADF0A37403F089
:102EF900A374CDF07B61022F9490013D7401F0A37E
:102F0900740CF0A3E4F0A3749FF0A37405F0A37408
:102F1900ADF0A37403F0A374CDF07B81806D9001B3
:102F29003D7401F0A3740CF0A3E4F0A374BFF0A303
:102F39007405F0A374ADF0A37403F0A374CDF07B12
:102F4900A1804890013D7401F0A3740CF0A3E4F052
:102F5900A374DFF0A37405F0A374ADF0A37403F0B8
:102F6900A374CDF07BC1802390013D7401F0A3745B
:102F79000CF0A3E4F0A374FFF0A37405F0A374ADFF
:102F8900F0A37403F0A374CDF07BE17A00804F9035
:102F9900013D7401F0A3740CF0A37401F0A3741F34
:102FA900F0A37405F0A374ADF0A37403F0A374CD7A
:102FB900F07401FBFAFD802890013D7401F0A374BF
:102FC9000CF0A37401F0A3743FF0A37405F0A3748B
:102FD900ADF0A37403F0A374CDF07B217A017D01D8
:082FE9007C007F051240AA22C2
:1048B70090013D7407F0A3740CF0A37402F0A37485
:1048C7001CF0A37405F0A37474F0A3E4F0A374B010
:0D48D700F0FB7A007D747C057F030240AA8F
:1048E40090013D7407F0A3740CF0A37402F0A37458
:1048F4001CF0A37405F0A37474F0A3E4F0A374B0E3
:0D490400F0FB7A007D747C057F020240AA62
:020089002D0048
:10366B004101BC004201BD00004401BF000000004D
:10367B004201C300004101C5004401C60000000027
:1046CE009000E774FFF0A37407F0A37402F0A3EF59
:1046DE00F090015EE0FFE4FCFDFE9000EB12299AE3
:1046EE009001BCE0FFE4FCFDFE9000EF12299A90D1
:1046FE0000F37401F0A3742AF0A37402F0A374E61D
:10470E00F07BFF7D017F021217FD90015EE09001AC
:02471E00BCF0ED
:014720002276
:10455F009000E774FFF0A37407F0A37404F0A3EFC7
:10456F00F0900170E0FEA3E0FFE4FCFD9000EB1281
:10457F00299A9001BDE0FEA3E0FFE4FCFD9000EF5F
:10458F0012299A9000F37405F0A374F5F0A3740246
:10459F00F0A374E6F07BFF7D017F021217FD9001FF
:0D45AF0070E0FFA3E09001BDCFF0A3EFF09E
:0145BC0022DC
:104493009000E774FFF0A37403F0A37407F0A3EF95
:1044A300F0900157E0FCA3E0FDA3E0FEA3E0FF9042
:1044B30000EB12299A9001BFE0FCA3E0FDA3E0FE0C
:1044C300A3E0FF9000EF12299A9000F37401F0A388
:1044D3007422F0A37403F0A374C5F07BFF7D017F06
:1044E300021217FD900157E0FCA3E0FDA3E0FEA339
:0844F300E0FF9001BF02299ACD
:1045BD009000E774FFF0A37403F0A37405F0A3EF6C
:1045CD00F0900161E0FEA3E0FFE4FCFD9000EB1232
:1045DD00299A9001C3E0FEA3E0FFE4FCFD9000EFFB
:1045ED0012299A9000F37402F0A37450F0A374038F
:1045FD00F0A374C5F07BFF7D017F021217FD9001C2
:0D460D0061E0FFA3E09001C3CFF0A3EFF048
:01461A00227D
:104721009000E774FFF0A37407F0A37402F0A3EF05
:10473100F0900179E0FFE4FCFDFE9000EB12299A74
:104741009001C5E0FFE4FCFDFE9000EF12299A9074
:1047510000F37403F0A3749CF0A37402F0A374DF5C
:10476100F07BFF7D017F021217FD900179E090013E
:02477100C5F091
:014773002223
:05368C009000E4EFF0E6
:10369100900179E0FFE4FCFDFE9000E512299AE437
:1036A1007F3A7E01FDFC9000E5E0F8A3E0F9A3E09C
:1036B100FAA3E0FB12282F9000E5E0F8A3E0F9A3BC
:1036C100E0FAA3E0FB12282F9000E912299A900159
:1036D10070E0FEA3E0FFE4FCFD9000E512299AE40E
:1036E1007FE87E03FDFC9000E5E0F8A3E0F9A3E0AC
:1036F100FAA3E0FB12282F9000E9E0F8A3E0F9A378
:10370100E0FAA3E0FB1228BA9000ED12299A900189
:103711005EE0FFE4FCFDFE9000E512299A9000EDC9
:10372100E0FCA3E0FDA3E0FEA3E0FF9000E5E0F8EC
:10373100A3E0F9A3E0FAA3E0FB12282F9000ED1219
:10374100299A9000F474FFF0A37409F0A37406F0B1
:103751009000E4E09000F7F09000EDE0FCA3E0FDC4
:10376100A3E0FEA3E0FF9000F812299A9001C6E0C1
:10377100FCA3E0FDA3E0FEA3E0FF9000FC12299A68
:103781009001007403F0A3742FF0A37401F0A374EB
:103791003BF07BFF7D017F0212134D9000EDE0FCB9
:0F37A100A3E0FDA3E0FEA3E0FF9001C602299A7A
:103AB1009000E4EFF090013DE4F0A37460F0A3E422
:103AC100F0A37410F0A3E4F0A37448F0E4A3F0A30E
:103AD100F0FBFA7D48FC7F021240AA9000E4E0FF6F
:103AE100C394FE402190011A74FFF0A37401F0E425
:103AF100FCFDFEA312299A9001207403F0A3E4F0C7
:103B0100A37448023B909000E4E0D3940A5056908D
:103B110001437401F0A3E4F0A37448F0E4A3F0A31B
:103B2100F0A374FFF0A37400F0A37489F07B017D0E
:103B3100FF7FFF123F7590011A74FFF0A37401F02B
:103B41009000E4E0FFC3740A9FFFE49400FEE4FCEC
:103B5100FD90011C12299A9001207402F0A3E4F057
:103B6100A37450802A90011A74FFF0A37401F0909D
:103B710000E4E024F6FFE434FFFEE4FCFD90011CC8
:103B810012299A9001207402F0A3E4F0A37448F082
:0E3B9100E4A3F0A3F07BFFFD7F021220592277
:0300000002413684
:0C413600787FE4F6D8FD75812002417D01
:10270000BB010689828A83E0225002E722BBFE02D7
:09271000E32289828A83E493220A
:10271900BB010CE58229F582E5833AF583E0225075
:1027290006E92582F8E622BBFE06E92582F8E222BF
:0D273900E58229F582E5833AF583E49322D9
:10274600BB010689828A83F0225002F722BBFE0172
:02275600F3226C
:10275800F8BB010DE58229F582E5833AF583E8F0B7
:10276800225006E92582C8F622BBFE05E92582C863
:02277800F2224B
:10277A00EF8DF0A4A8F0CF8CF0A428CE8DF0A42E73
:02278A00FE222D
:10278C00BC000BBE0029EF8DF084FFADF022E4CC31
:10279C00F875F008EF2FFFEE33FEEC33FCEE9DECFA
:1027AC00984005FCEE9DFE0FD5F0E9E4CEFD22ED40
:1027BC00F8F5F0EE8420D21CFEADF075F008EF2F8A
:1027CC00FFED33FD4007985006D5F0F222C398FD7B
:0527DC000FD5F0EA2218
:1027E100C5F0F8A3E028F0C5F0F8E5821582700283
:0627F1001583E038F02220
:1027F700BB0110E58229F582E5833AF583E0F5F020
:10280700A3E0225009E92582F886F008E622BBFEFC
:102817000AE92582F8E2F5F008E222E5832AF58342
:08282700E993F5F0A3E9932207
:10282F00E88FF0A4CC8BF0A42CFCE98EF0A42CFC48
:10283F008AF0EDA42CFCEA8EF0A4CDA8F08BF0A4C6
:10284F002DCC3825F0FDE98FF0A42CCD35F0FCEB25
:10285F008EF0A4FEA9F0EB8FF0A4CFC5F02ECD39EA
:0F286F00FEE43CFCEAA42DCE35F0FDE43CFC2257
:10287E0075F008758200EF2FFFEE33FECD33CDCC11
:10288E0033CCC58233C5829BED9AEC99E582984094
:10289E000CF582EE9BFEED9AFDEC99FC0FD5F0D671
:1028AE00E4CEFBE4CDFAE4CCF9A88222B800C1B99B
:1028BE000059BA002DEC8BF084CFCECDFCE5F0CBD9
:1028CE00F97818EF2FFFEE33FEED33FDEC33FCEB12
:1028DE0033FB10D703994004EB99FB0FD8E5E4F9CD
:1028EE00FA227818EF2FFFEE33FEED33FDEC33FCBA
:1028FE00C933C910D7059BE99A4007EC9BFCE99AAE
:10290E00F90FD8E0E4C9FAE4CCFB2275F010EF2FF2
:10291E00FFEE33FEED33FDCC33CCC833C810D707F2
:10292E009BEC9AE899400AED9BFDEC9AFCE899F82D
:0E293E000FD5F0DAE4CDFBE4CCFAE4C8F922C0
:1047C400C2D5E830E70FB2D5E4C39BFBE49AFAE420
:1047D40099F9E498F8EC30E717B2D51247FA1228A1
:1047E400BAE4C39BFBE49AFAE499F9E498F88003E9
:1047F4001228BA30D50DE4C39FFFE49EFEE49DFD6C
:04480400E49CFC2212
:10294C00EB9FF5F0EA9E42F0E99D42F0EC6480C802
:06295C0064809845F022A2
:10296200EB9FF5F0EA9E42F0E99D42F0E89C45F0CB
:012972002242
:10297300E86010ECA2E713FCED13FDEE13FEEF137A
:04298300FFD8F02267
:10298700E8600FEFC333FFEE33FEED33FDEC33FCAE
:03299700D8F12252
:0C299A00ECF0A3EDF0A3EEF0A3EFF022B0
:1029A600A8828583F0D083D0821229BD1229BD1258
:1029B60029BD1229BDE473E493A3C583C5F0C5837D
:1029C600C8C582C8F0A3C583C5F0C583C8C582C87B
:0129D60022DE
:0C29D700A42582F582E5F03583F583220B
:1029E300D083D082F8E4937012740193700DA3A383
:1029F30093F8740193F5828883E473740293686097
:062A0300EFA3A3A380DF96
:10414200023ED7E493A3F8E493A34003F68001F27E
:1041520008DFF48029E493A3F85407240CC8C3337E
:10416200C4540F4420C8834004F456800146F6DF4D
:10417200E4800B010204081020408090355DE47E4B
:10418200019360BCA3FF543F30E509541FFEE49342
:10419200A360010ECF54C025E060A840B8E493A309
:1041A200FAE493A3F8E493A3C8C582C8CAC583CA34
:1041B200F0A3C8C582C8CAC583CADFE9DEE780BEEC
:01368B00003E
:00000001FF
